{
  "contractName": "KNBContract",
  "abi": [
    {
      "inputs": [],
      "stateMutability": "nonpayable",
      "type": "constructor"
    },
    {
      "anonymous": false,
      "inputs": [
        {
          "indexed": false,
          "internalType": "string",
          "name": "result",
          "type": "string"
        },
        {
          "indexed": false,
          "internalType": "address",
          "name": "winner",
          "type": "address"
        }
      ],
      "name": "GameResult",
      "type": "event"
    },
    {
      "anonymous": false,
      "inputs": [
        {
          "indexed": false,
          "internalType": "address",
          "name": "player",
          "type": "address"
        }
      ],
      "name": "PlayerCommitted",
      "type": "event"
    },
    {
      "anonymous": false,
      "inputs": [
        {
          "indexed": false,
          "internalType": "address",
          "name": "player",
          "type": "address"
        },
        {
          "indexed": false,
          "internalType": "enum KNBContract.Choice",
          "name": "choice",
          "type": "uint8"
        }
      ],
      "name": "PlayerRevealed",
      "type": "event"
    },
    {
      "inputs": [],
      "name": "host",
      "outputs": [
        {
          "internalType": "address",
          "name": "",
          "type": "address"
        }
      ],
      "stateMutability": "view",
      "type": "function",
      "constant": true
    },
    {
      "inputs": [
        {
          "internalType": "address",
          "name": "",
          "type": "address"
        }
      ],
      "name": "players",
      "outputs": [
        {
          "internalType": "bytes32",
          "name": "hashedChoice",
          "type": "bytes32"
        },
        {
          "internalType": "enum KNBContract.Choice",
          "name": "choice",
          "type": "uint8"
        }
      ],
      "stateMutability": "view",
      "type": "function",
      "constant": true
    },
    {
      "inputs": [
        {
          "internalType": "bytes32",
          "name": "_hashedChoice",
          "type": "bytes32"
        }
      ],
      "name": "commitChoice",
      "outputs": [],
      "stateMutability": "nonpayable",
      "type": "function"
    },
    {
      "inputs": [
        {
          "internalType": "enum KNBContract.Choice",
          "name": "_choice",
          "type": "uint8"
        },
        {
          "internalType": "bytes32",
          "name": "_salt",
          "type": "bytes32"
        }
      ],
      "name": "revealChoice",
      "outputs": [],
      "stateMutability": "nonpayable",
      "type": "function"
    },
    {
      "inputs": [
        {
          "internalType": "address",
          "name": "player1",
          "type": "address"
        },
        {
          "internalType": "address",
          "name": "player2",
          "type": "address"
        }
      ],
      "name": "determineWinner",
      "outputs": [],
      "stateMutability": "nonpayable",
      "type": "function"
    }
  ],
  "bytecode": "0x608060405234801561001057600080fd5b50336000806101000a81548173ffffffffffffffffffffffffffffffffffffffff021916908373ffffffffffffffffffffffffffffffffffffffff1602179055506112d7806100606000396000f3fe608060405234801561001057600080fd5b50600436106100575760003560e01c80633367ffc81461005c578063aa6f188e14610078578063e05b10c014610094578063e2eb41ff146100b0578063f437bc59146100e1575b600080fd5b61007660048036038101906100719190610bbd565b6100ff565b005b610092600480360381019061008d9190610c2a565b610737565b005b6100ae60048036038101906100a99190610bfd565b610981565b005b6100ca60048036038101906100c59190610b90565b610afc565b6040516100d8929190610e4d565b60405180910390f35b6100e9610b2d565b6040516100f69190610e09565b60405180910390f35b60008054906101000a900473ffffffffffffffffffffffffffffffffffffffff1673ffffffffffffffffffffffffffffffffffffffff163373ffffffffffffffffffffffffffffffffffffffff161461018d576040517f08c379a000000000000000000000000000000000000000000000000000000000815260040161018490610f32565b60405180910390fd5b600060038111156101a1576101a061102e565b5b600160008473ffffffffffffffffffffffffffffffffffffffff1673ffffffffffffffffffffffffffffffffffffffff16815260200190815260200160002060010160009054906101000a900460ff1660038111156102035761020261102e565b5b141580156102855750600060038111156102205761021f61102e565b5b600160008373ffffffffffffffffffffffffffffffffffffffff1673ffffffffffffffffffffffffffffffffffffffff16815260200190815260200160002060010160009054906101000a900460ff1660038111156102825761028161102e565b5b14155b6102c4576040517f08c379a00000000000000000000000000000000000000000000000000000000081526004016102bb90610f52565b60405180910390fd5b600160008273ffffffffffffffffffffffffffffffffffffffff1673ffffffffffffffffffffffffffffffffffffffff16815260200190815260200160002060010160009054906101000a900460ff1660038111156103265761032561102e565b5b600160008473ffffffffffffffffffffffffffffffffffffffff1673ffffffffffffffffffffffffffffffffffffffff16815260200190815260200160002060010160009054906101000a900460ff1660038111156103885761038761102e565b5b14156103cb577fba4f96ef320992a7ada2a8a0776f15871d5d87eb28ab3ee62e403e25eeaf93b360006040516103be9190610f72565b60405180910390a1610733565b600160038111156103df576103de61102e565b5b600160008473ffffffffffffffffffffffffffffffffffffffff1673ffffffffffffffffffffffffffffffffffffffff16815260200190815260200160002060010160009054906101000a900460ff1660038111156104415761044061102e565b5b1480156104c0575060038081111561045c5761045b61102e565b5b600160008373ffffffffffffffffffffffffffffffffffffffff1673ffffffffffffffffffffffffffffffffffffffff16815260200190815260200160002060010160009054906101000a900460ff1660038111156104be576104bd61102e565b5b145b806105bd5750600260038111156104da576104d961102e565b5b600160008473ffffffffffffffffffffffffffffffffffffffff1673ffffffffffffffffffffffffffffffffffffffff16815260200190815260200160002060010160009054906101000a900460ff16600381111561053c5761053b61102e565b5b1480156105bc5750600160038111156105585761055761102e565b5b600160008373ffffffffffffffffffffffffffffffffffffffff1673ffffffffffffffffffffffffffffffffffffffff16815260200190815260200160002060010160009054906101000a900460ff1660038111156105ba576105b961102e565b5b145b5b806106b957506003808111156105d6576105d561102e565b5b600160008473ffffffffffffffffffffffffffffffffffffffff1673ffffffffffffffffffffffffffffffffffffffff16815260200190815260200160002060010160009054906101000a900460ff1660038111156106385761063761102e565b5b1480156106b85750600260038111156106545761065361102e565b5b600160008373ffffffffffffffffffffffffffffffffffffffff1673ffffffffffffffffffffffffffffffffffffffff16815260200190815260200160002060010160009054906101000a900460ff1660038111156106b6576106b561102e565b5b145b5b156106fa577fba4f96ef320992a7ada2a8a0776f15871d5d87eb28ab3ee62e403e25eeaf93b3826040516106ed9190610e96565b60405180910390a1610732565b7fba4f96ef320992a7ada2a8a0776f15871d5d87eb28ab3ee62e403e25eeaf93b3816040516107299190610ee4565b60405180910390a15b5b5050565b60008054906101000a900473ffffffffffffffffffffffffffffffffffffffff1673ffffffffffffffffffffffffffffffffffffffff163373ffffffffffffffffffffffffffffffffffffffff1614156107c6576040517f08c379a00000000000000000000000000000000000000000000000000000000081526004016107bd90610ec4565b60405180910390fd5b600060038111156107da576107d961102e565b5b8260038111156107ed576107ec61102e565b5b141561082e576040517f08c379a000000000000000000000000000000000000000000000000000000000815260040161082590610e76565b60405180910390fd5b600160003373ffffffffffffffffffffffffffffffffffffffff1673ffffffffffffffffffffffffffffffffffffffff168152602001908152602001600020600001548282604051602001610884929190610ddd565b60405160208183030381529060405280519060200120146108da576040517f08c379a00000000000000000000000000000000000000000000000000000000081526004016108d190610f12565b60405180910390fd5b81600160003373ffffffffffffffffffffffffffffffffffffffff1673ffffffffffffffffffffffffffffffffffffffff16815260200190815260200160002060010160006101000a81548160ff0219169083600381111561093f5761093e61102e565b5b02179055507f94699ab102c9b7b3d9b20e0fccd90286519be6fb5338f337756cb7eafe2bcc1c3383604051610975929190610e24565b60405180910390a15050565b60008054906101000a900473ffffffffffffffffffffffffffffffffffffffff1673ffffffffffffffffffffffffffffffffffffffff163373ffffffffffffffffffffffffffffffffffffffff161415610a10576040517f08c379a0000000000000000000000000000000000000000000000000000000008152600401610a0790610ec4565b60405180910390fd5b80600160003373ffffffffffffffffffffffffffffffffffffffff1673ffffffffffffffffffffffffffffffffffffffff168152602001908152602001600020600001819055506000600160003373ffffffffffffffffffffffffffffffffffffffff1673ffffffffffffffffffffffffffffffffffffffff16815260200190815260200160002060010160006101000a81548160ff02191690836003811115610abd57610abc61102e565b5b02179055507f3927e95d68b56bf949eddce714a77cb6a0e0283b3cbf9909ac820c1e91d74dc633604051610af19190610e09565b60405180910390a150565b60016020528060005260406000206000915090508060000154908060010160009054906101000a900460ff16905082565b60008054906101000a900473ffffffffffffffffffffffffffffffffffffffff1681565b600081359050610b6081611263565b92915050565b600081359050610b758161127a565b92915050565b600081359050610b8a81611291565b92915050565b600060208284031215610ba657610ba561105d565b5b6000610bb484828501610b51565b91505092915050565b60008060408385031215610bd457610bd361105d565b5b6000610be285828601610b51565b9250506020610bf385828601610b51565b9150509250929050565b600060208284031215610c1357610c1261105d565b5b6000610c2184828501610b66565b91505092915050565b60008060408385031215610c4157610c4061105d565b5b6000610c4f85828601610b7b565b9250506020610c6085828601610b66565b9150509250929050565b610c7381610fb1565b82525050565b610c8281610fc3565b82525050565b610c99610c9482610fc3565b611012565b82525050565b610ca881611000565b82525050565b610cbf610cba82611000565b61101c565b82525050565b6000610cd2601e83610fa0565b9150610cdd8261106f565b602082019050919050565b6000610cf5600c83610fa0565b9150610d0082611098565b602082019050919050565b6000610d18602583610fa0565b9150610d23826110c1565b604082019050919050565b6000610d3b600c83610fa0565b9150610d4682611110565b602082019050919050565b6000610d5e603983610fa0565b9150610d6982611139565b604082019050919050565b6000610d81602583610fa0565b9150610d8c82611188565b604082019050919050565b6000610da4602f83610fa0565b9150610daf826111d7565b604082019050919050565b6000610dc7600b83610fa0565b9150610dd282611226565b602082019050919050565b6000610de98285610cae565b600182019150610df98284610c88565b6020820191508190509392505050565b6000602082019050610e1e6000830184610c6a565b92915050565b6000604082019050610e396000830185610c6a565b610e466020830184610c9f565b9392505050565b6000604082019050610e626000830185610c79565b610e6f6020830184610c9f565b9392505050565b60006020820190508181036000830152610e8f81610cc5565b9050919050565b60006040820190508181036000830152610eaf81610ce8565b9050610ebe6020830184610c6a565b92915050565b60006020820190508181036000830152610edd81610d0b565b9050919050565b60006040820190508181036000830152610efd81610d2e565b9050610f0c6020830184610c6a565b92915050565b60006020820190508181036000830152610f2b81610d51565b9050919050565b60006020820190508181036000830152610f4b81610d74565b9050919050565b60006020820190508181036000830152610f6b81610d97565b9050919050565b60006040820190508181036000830152610f8b81610dba565b9050610f9a6020830184610c6a565b92915050565b600082825260208201905092915050565b6000610fbc82610fe0565b9050919050565b6000819050919050565b6000819050610fdb8261124f565b919050565b600073ffffffffffffffffffffffffffffffffffffffff82169050919050565b600061100b82610fcd565b9050919050565b6000819050919050565b600061102782611062565b9050919050565b7f4e487b7100000000000000000000000000000000000000000000000000000000600052602160045260246000fd5b600080fd5b60008160f81b9050919050565b7f596f752073686f756c64206d616b6520612076616c69642063686f6963650000600082015250565b7f506c61796572312077696e730000000000000000000000000000000000000000600082015250565b7f4f6e6c79206120706c617965722063616e20706572666f726d2074686973206160008201527f6374696f6e000000000000000000000000000000000000000000000000000000602082015250565b7f506c61796572322077696e730000000000000000000000000000000000000000600082015250565b7f5468652072657665616c65642063686f69636520646f6573206e6f74206d617460008201527f636820776974682074686520636f6d6d6974746564206f6e6500000000000000602082015250565b7f4f6e6c792074686520686f73742063616e20706572666f726d2074686973206160008201527f6374696f6e000000000000000000000000000000000000000000000000000000602082015250565b7f426f746820706c61796572732073686f756c6420686176652072657665616c6560008201527f642074686569722063686f696365730000000000000000000000000000000000602082015250565b7f4974277320612064726177000000000000000000000000000000000000000000600082015250565b600481106112605761125f61102e565b5b50565b61126c81610fb1565b811461127757600080fd5b50565b61128381610fc3565b811461128e57600080fd5b50565b6004811061129e57600080fd5b5056fea26469706673582212202a239ff52ca6a0ece77aac7c2441e2a10a63ba8714030ce5c2d919a9ff7d4eee64736f6c63430008060033",
  "immutableReferences": {},
  "source": "// SPDX-License-Identifier: MIT\npragma solidity ^0.8.0;\n\ncontract KNBContract {\n    enum Choice { None, Rock, Paper, Scissors }\n\n    struct Player {\n        bytes32 hashedChoice;\n        Choice choice;\n    }\n\n    address public host;\n    mapping(address => Player) public players;\n\n    event PlayerCommitted(address player);\n    event PlayerRevealed(address player, Choice choice);\n    event GameResult(string result, address winner);\n\n    constructor() {\n        host = msg.sender;\n    }\n\n    modifier onlyHost {\n        require(msg.sender == host, \"Only the host can perform this action\");\n        _;\n    }\n\n    modifier onlyPlayers {\n        require(msg.sender != host, \"Only a player can perform this action\");\n        _;\n    }\n\n    function commitChoice(bytes32 _hashedChoice) external onlyPlayers {\n        players[msg.sender].hashedChoice = _hashedChoice;\n        players[msg.sender].choice = Choice.None;\n        \n        emit PlayerCommitted(msg.sender);\n    }\n\n    function revealChoice(Choice _choice, bytes32 _salt) external onlyPlayers {\n        require(_choice != Choice.None, \"You should make a valid choice\");\n        require(keccak256(abi.encodePacked(_choice, _salt)) == players[msg.sender].hashedChoice, \"The revealed choice does not match with the committed one\");\n        \n        players[msg.sender].choice = _choice;\n\n        emit PlayerRevealed(msg.sender, _choice);\n    }\n\n    function determineWinner(address player1, address player2) external onlyHost {\n        require(players[player1].choice != Choice.None && players[player2].choice != Choice.None, \"Both players should have revealed their choices\");\n\n        if (players[player1].choice == players[player2].choice) {\n            emit GameResult(\"It's a draw\", address(0));\n        } else if ((players[player1].choice == Choice.Rock && players[player2].choice == Choice.Scissors) || \n                   (players[player1].choice == Choice.Paper && players[player2].choice == Choice.Rock) || \n                   (players[player1].choice == Choice.Scissors && players[player2].choice == Choice.Paper)) {\n            emit GameResult(\"Player1 wins\", player1);\n        } else {\n            emit GameResult(\"Player2 wins\", player2);\n        }\n    }\n}\n",
  "sourcePath": "/home/freulaeux/knb/contracts/KNBContract.sol",
  "compiler": {
    "name": "solc",
    "version": "0.8.6+commit.11564f7e.Emscripten.clang"
  },
  "schemaVersion": "3.4.14",
  "updatedAt": "2023-06-29T01:41:33.676Z",
  "networkType": "ethereum",
  "devdoc": {
    "kind": "dev",
    "methods": {},
    "version": 1
  },
  "userdoc": {
    "kind": "user",
    "methods": {},
    "version": 1
  }
}